:02000000262EAA
:0E000600533083120313FD00FD0B0728080082
:10001400243083120313FC00B530FD00FD0B1028BF
:0A002400FC0B10280000000008008B
:10002E00073084000008000883120313F000F0115B
:06003E00700880000800BC
:0C004400000000000000000000000800A8
:10005000073084000008000883120313F0007012B8
:060060007008800008009A
:10006600013083120313EB000030EC008030E9000E
:10007600EA0169086A04031969282220222022203D
:100086002220172083168711222022208312690836
:100096006805F00000306A05F10070087104031964
:1000A6005728831607165A28282083160712222057
:1000B6002220871583122F10871965282F1C642884
:1000C60065285F28EA0CE90CEA133C28EB01EC01F1
:1000D600222022201720831687112220222007168D
:1000E6002220222022202220871583122F108719F2
:1000F60080282F1C7F2880287A28EB01EC012220FB
:100106002220071E87286B1422202220222022204C
:1001160022202220222022202220222022202220C9
:100126002220222022202220172083168711282011
:0C0136008316071283126B08F00008000B
:10014200831603130716222022208715222022203D
:1001520028208316071222202220172083168711B7
:02016200080093
:1001640083120313F801F9011030FC00710DF80D2E
:10017400F90D7408F8027508031C750FF9020318C9
:10018400CA287408F80775080318750FF9070310CF
:0A019400F00DF10DFC0BB828080077
:10019E0028208316071222202220871583122F1063
:1001AE008719DD282F1CDC28DD28D72822202220C5
:1001BE0022202220222022202220222083160716EF
:0601CE002220222008009F
:1001D40083120313EA01EB018030EC000030ED00E0
:1001E4006C086D0403191529222022208316071692
:1001F40022202220871583122F10871905292F1CEE
:1002040004290529FF28071E0B296C08EA046D0838
:10021400EB04222022201720831687118312ED0C71
:10022400EC0CED13F22883160716222022208312E9
:1002340068086904031921292820831607128316E4
:1002440022202220871583122F1087192D292F1C75
:100254002C292D29272922202220172083168711B3
:100264002220222028208316071283126A08F00015
:02027400080080
:1002760083120313E81B4129861242298616681B3E
:100286004629061247290616E81A4B2986114C29D3
:100296008615681A5029061151290615AF185529D1
:1002A600061456290610861422208610E8195D29A0
:1002B60086125E29861668196229061263290616B1
:1002C600E818672986116829861568186C290611A9
:1002D6006D290615AF1871290614722906108614A1
:1002E60022208610AF1C79290A207A2903200800CB
:1002F60083120313AF106308E8003B21AF14080014
:100306008316031398169030831298008316871766
:10031600071383128C1E92291A08F0008C290800F4
:0E0326008312031331088A0030088200080099
:1003340083120313E601053066020318A829660830
:100344006507840020308000E60A9D296608650759
:1003540084008001E60366086507E7000A30F400BC
:10036400F5016308F0006408F100B2207808F00099
:100374007908F1003030F0076708840070088000C5
:100384000A30F400F5016308F0006408F100B220BB
:100394007008E3007108E40000307106031DD429DD
:1003A40000307006031DD729D929E603AD290800BA
:1003B400A12083126308F000F00D701090307004D7
:1003C400E80033206408E80033206608E80033209E
:0A03D4006508E8003320CF20080080
:1003DE0083120313FB01FA01F901F801A001730D59
:1003EE00F80D7408F8027508031C750FF9027608EB
:1003FE00031C760FFA027708031C770FFB0200012D
:10040E00031C0130A002F30D0730FC00730DF80D34
:10041E00F90DFA0DFB0DA00D7408731C282AF802B5
:10042E007508031C750FF9027608031C760FFA0285
:10043E007708031C770FFB020001031C0130A0029A
:10044E00392AF80775080318750FF9077608031887
:10045E00760FFA0777080318770FFB0700010318CA
:10046E000130A007F30DFC0B0D2A720DF80DF90DDE
:10047E00FA0DFB0DA00D7408731C572AF8027508AF
:10048E00031C750FF9027608031C760FFA02770823
:10049E00031C770FFB020001031C0130A002682A27
:1004AE00F80775080318750FF90776080318760F05
:1004BE00FA0777080318770FFB07000103180130BE
:1004CE00A007F20D0730FC00720DF80DF90DFA0DB4
:1004DE00FB0DA00D7408721C862AF8027508031C09
:1004EE00750FF9027608031C760FFA027708031CC3
:1004FE00770FFB020001031C0130A002972AF807B8
:10050E0075080318750FF90776080318760FFA07A2
:10051E0077080318770FFB07000103180130A007B7
:10052E00F20DFC0B6B2A710DF80DF90DFA0DFB0D8A
:10053E00A00D7408721CB52AF8027508031C750FFD
:10054E00F9027608031C760FFA027708031C770F60
:10055E00FB020001031C0130A002C62AF807750831
:10056E000318750FF90776080318760FFA07770840
:10057E000318770FFB07000103180130A007F10DD8
:10058E000730FC00710DF80DF90DFA0DFB0DA00DE5
:10059E007408711CE42AF8027508031C750FF90221
:1005AE007608031C760FFA027708031C770FFB02FE
:1005BE000001031C0130A002F52AF8077508031884
:1005CE00750FF90776080318760FFA0777080318E0
:1005DE00770FFB07000103180130A007F10DFC0B8C
:1005EE00C92A700DF80DF90DFA0DFB0DA00D74084A
:1005FE00711C132BF8027508031C750FF90276088F
:10060E00031C760FFA027708031C770FFB0200011A
:10061E00031C0130A002242BF80775080318750F70
:10062E00F90776080318760FFA0777080318770F7D
:10063E00FB07000103180130A007F00D0730FC0086
:10064E00700DF80DF90DFA0DFB0DA00D7408701C50
:10065E00422BF8027508031C750FF9027608031C6D
:10066E00760FFA027708031C770FFB020001031CBA
:10067E000130A002532BF80775080318750FF90700
:10068E0076080318760FFA0777080318770FFB071B
:10069E00000103180130A007F00DFC0B272B70187A
:1006AE00662B7408F80775080318750FF907760896
:1006BE000318760FFA0777080318770FFB07080061
:1006CE008316031398186D2B0000672B8312630893
:0406DE009900080077
:1006E200A12083126308F000F00D701090307004A6
:1006F200E80033206408E8003320A1208312630855
:10070200F000F00D701090307004E800681433208F
:100712000130E8000030E900EA207008E600E80154
:10072200E901EA207008E500CF2083126508F00095
:060732006608F10008005A
:10073800831203137008D8005708E300AA30E400B6
:1007480071237008D9007108DA000230F3005808E4
:10075800F2005930F100710884000008F0007208B6
:10076800840070088000F20AF10AF303031DAF2B1E
:02077800080077
:10077A0083120313DC01DD015708DE005808DF008D
:10078A0080305806F00080307002031DCE2B0030F6
:10079A0057020318DC2B0130DC000030DD0057085B
:1007AA00003CDE005808031C013EDF01DF025E0840
:1007BA00E3005F08E4005908E5009A210630DA00F0
:1007CA000030DB005B08003C031DED2B5A08003C9F
:1007DA000318082C5A085907F20001305A02F0008F
:1007EA000030031C013E5B02F100700859078400C7
:1007FA000008F00072088400700880000130DA02F4
:10080A00031CDB03E72B59088400203080005C08B6
:10081A005D040319262CDA01DB015A085907840002
:10082A000008203A031D1D2CDA0A0319DB0A122CD0
:10083A000130DA02031CDB035A08590784002D3001
:04084A008000080022
:10084E00392C803083120313D7004C2CC030D700C4
:10085E004C2C9430D7004C2CD430D7004C2C8030FC
:10086E00D7004C2C831203135708013A0319282C76
:10087E005708023A03192D2C5708033A0319302C46
:10088E005708043A0319332C362C5803F000570836
:10089E00F0077008D7007008E8003B21AF10DA01AE
:1008AE005A085907840000080319652C5A0859077D
:1008BE0084000008E3007B21DA0A572CAF140800ED
:1008CE00A12083125708F000F00D701090307004C4
:0E08DE00E80033205130E8003320CF2008001E
:1008EC00813083160313990018158321DA01DB017B
:1008FC0080305B06F000803058067002031D882C97
:10090C0057085A020318942C5A08590784000008F7
:0E091C00E3006723DA0A0319DB0A7E2C0800C9
:10092A0083120313D80158085707840000080319D3
:10093A00A62C5808570784000008E3007B21D80A30
:04094A00982C0800DD
:10094E0083160313861006100611861106128612E0
:10095E0083128610061086120612861106110A20C0
:10096E000A200A20861506158614222086100A20D3
:10097E008614222086100A208614222086100A2031
:10098E0006118614222086100A2086142220861034
:10099E00861186168614222086100A2086120615C7
:1009AE0086142220861006118614222086100A2014
:1009BE0086142220861006158614222086100A2000
:1009CE000611861422208610861606168615061522
:0C09DE008614222086100A20AF140800A6
:1009EA0093218A110A128000840AB00A0319B10AF3
:0809FA00F003031DF52C0800B9
:100A020083120313DD010B305D0203180F2D5D0805
:100A12005B07840030308000DD0A042D5D085B072F
:100A2200840080010030F0005A06031D222D700858
:100A32005906031D222D70085806031D222D570842
:100A4200003A031D252DB72DDC0180305A06F00037
:100A520080307002031D372D00305902031D372DDF
:100A620000305802031D372D0030570203185E2D47
:100A72000130DC00F401F501F601F7015708F0003E
:100A82005808F1005908F2005A08F3007408DE0011
:100A92007508DF007608E0007708E1007008DE02E2
:100AA2007108031C710FDF027208031C720FE0024F
:100AB2007308031C730FE102662D5708DE00580805
:100AC200DF005908E0005A08E1000A30DD0000307A
:100AD200F0006106031D772D70086006031D772D57
:100AE20070085F06031D772D5E08003A0319B02DCA
:100AF2005D085B07E2000A30F400F501F601F70138
:100B02005E08F0005F08F1006008F2006108F3007F
:100B1200EF217808F0007908F1007A08F2007B08EA
:100B2200F3003030F0076208840070088000DD03B3
:100B32000A30F400F501F601F7015E08F0005F08E3
:100B4200F1006008F2006108F300EF217008DE0096
:100B52007108DF007208E0007308E100682D5C088C
:0E0B62000319B72D5B0884002D3080000800B9
:100B700083120313FB01FA01F9018030F800F10C34
:100B8000F00C031CCC2D7408F90775080318750FB9
:100B9000FA070318FB0A0310F01FD42D7408FA0794
:100BA00075080318750FFB07FB0CFA0CF90CF80C11
:100BB000031CBF2D7B08F3007A08F2007908F100CE
:060BC0007808F0000800B7
:100BC600831203135708E300A130E4005A08E60035
:100BD600E501DA214130FC00EE30FD00FD0BF12D80
:100BE600FC0BF12D000083125708E300A230E4004D
:100BF6005808E600E501DA214130FC00EE30FD0040
:0C0C0600FD0B032EFC0B032E0000080069
:100C1200A12083125708F000F00D7010903070047C
:100C2200E8003320AC30E800332058088400000884
:100C3200E8003320CF204130FC00EE30FD00FD0BF8
:0A0C4200202EFC0B202E00000800FD
:100C4C00543083120313A1006530A2006D30A30051
:100C5C007030A4003A30A5002030A600A701443023
:100C6C00A8005330A9003130AA003630AB00333025
:100C7C00AC003130AD00AE015430C4006530C5005D
:100C8C006D30C6007030C7006530C8007230C900C6
:100C9C006130CA007430CB007530CC007230CD009E
:100CAC006530CE002030CF00D0010D30D100D20104
:100CBC002E30D300D4018801003083168800A7247D
:100CCC000130E8003B210C30E8003B213214B21417
:100CDC000C303204F0007008B200D7013230D8006A
:100CEC0009268312D7011430D8000030D9001930EE
:100CFC00DA000030DB00E3258312D70167241430BF
:100D0C00FB000730FC001130FD00FD0B8B2EFC0BA3
:100D1C008B2EFB0B8B2E0000000001308312E800A1
:100D2C003B210130D7000530D8002830D9002724CA
:100D3C000230D7000130D8002130D9002724D70148
:100D4C005530F0009C230230F3003330F200553064
:100D5C00F100710884000008F0007208840070082B
:100D6C008000F20AF10AF303031DAF2E8312FF3049
:100D7C003405D700D8010030D8050030D800353004
:100D8C00D900BD230B30D7000030D8004430D90037
:100D9C0076240130D7000030D8005130D9007624A9
:100DAC003830D70095240730D7000030D8003530C4
:100DBC00D90076242E30E3007B210130D70000309F
:100DCC00D8005330D9007624F0303305F400F40CFD
:100DDC00F413F40CF413F40CF413F40CF41371304A
:100DEC00F0000230F1000030F500B8257008D70093
:100DFC007108D8000030D81BFF30D900DA0035302C
:100E0C00DB0001253C30D70095240730D70000309B
:100E1C00D8003C30D90076240130D7000030D800FF
:100E2C005130D9007624DF30E3007B214330E300DE
:100E3C007B218816881E322F803088061A30FB00E2
:100E4C005E30FC006E30FD00FD0B2A2FFC0B2A2FB0
:0E0E5C00FB0B2A2F0000332F8813822E342F19
:02400E004A2F37
:00000001FF
