:020000000329D2
:0E000600213083120313FD00FD0B07280800B4
:100014000F3083120313FC004730FD00FD0B102842
:0A002400FC0B10280000000008008B
:06002E00000000000800C4
:1000340083120313BA1B20288612212886163A1B22
:100044002528061226280616BA1A2A2886112B28CD
:1000540086153A1A2F280611302806153218342826
:10006400061435280610861417208610BA193C2861
:1000740086123D2886163A19412806124228061689
:10008400BA1846288611472886153A184B280611AF
:100094004C280615321850280614512806108614C8
:1000A40017208610321C58280A20592803200800DB
:0E00B4008312031334088A0033088200080008
:1000C2008312031332103908BA001A2032140800BE
:1000D2008316031386100610061186110612861265
:1000E20083128610061086120612861106110A2045
:1000F2000A200A20861506158614172086100A2063
:100102008614172086100A208614172086100A20CB
:1001120006118614172086100A20861417208610CE
:10012200861186168614172086100A208612061556
:1001320086141720861006118614172086100A20AE
:1001420086141720861006158614172086100A209A
:1001520006118614172086108616061686150615B1
:0C0162008614172086100A2032140800B2
:10016E00C928803083120313B500DC28C030B500D7
:10017E00DC289430B500DC28D430B500DC28803083
:10018E00B500DC28831203133508013A0319B82889
:10019E003508023A0319BD283508033A0319C02859
:1001AE003508043A0319C328C6283603F00035086B
:1001BE00F0077008B5007008BA001A203210B801A6
:1001CE0038083707840000080319F5283808370760
:1001DE0084000008B9006120B80AE728321408002C
:1001EE005A208A110A128000840AB30A0319B40A2B
:0801FE00F003031DF7280800BF
:10020600223083120313A0002D30A1005030A2002B
:100216004130A3005530A4005330A5004530A60058
:100226002030A7004330A8004130A9004630AA007C
:100236004530AB00AC015430AD004530AE00533014
:10024600AF005430B000B10169200130BA001A2065
:100256000C30BA001A20880140308316880001301D
:100266008312B5000130B6002108B700B72002306E
:10027600B5000130B6002008B700B7200817081FE0
:100286005529803088060B30FB002630FC005D3097
:10029600FD00FD0B4C29FC0B4C29FB0B4C290000E7
:0A02A6000000562988133229572959
:02400E007A3BFB
:00000001FF
