:020000002B2CA7
:0C000600000000000000000000000800E6
:10001200073084000008000883120313F0007012F6
:06002200700880000800D8
:10002800073084000008000883120313F000F01161
:06003800700880000800C2
:10003E00243083120313FC00B530FD00FD0B252880
:0A004E00FC0B25280000000008004C
:0E005800533083120313FD00FD0B3028080007
:1000660009208316071203200320871583122E10FA
:10007600871941282E1C402841283B2803200320AD
:1000860003200320032003200320032083160716E2
:0600960003200320080016
:10009C0083120313CD01CE018030CF000030D0008D
:1000AC004F085004031979280320032083160716E0
:1000BC0003200320871583122E10871969282E1C04
:1000CC00682869286328071E6F284F08CD0450083C
:1000DC00CE04032003201420831687118312D00C26
:1000EC00CF0CD01356288316071603200320831237
:1000FC004B084C0403198528092083160712831614
:10010C0003200320871583122E10871991282E1C8B
:10011C00902891288B280320032014208316871104
:10012C000320032009208316071283124D08F000C8
:02013C000800B9
:10013E00013083120313CE000030CF008030CC008C
:10014E00CD014C084D040319D528032003200320AC
:10015E0003201420831687110320032083124C08DA
:10016E004B05F00000304D05F100700871040319C5
:10017E00C32883160716C6280920831607120320E4
:10018E000320871583122E108719D1282E1CD028F4
:10019E00D128CB28CD0CCC0CCD13A828CE01CF0165
:1001AE000320032014208316871103200320071633
:1001BE000320032003200320871583122E10871996
:1001CE00EC282E1CEB28EC28E628CE01CF010320CC
:1001DE000320071EF3284E140320032003200320C0
:1001EE0003200320032003200320032003200320E9
:1001FE0003200320032003201420831687110920D7
:0C020E008316071283124E08F00008004F
:10021A0083160313071603200320871503200320E0
:10022A00092083160712032003201420831687113E
:02023A000800BA
:10023C0083120313F801F9011030FC00710DF80D55
:10024C00F90D7408F8027508031C750FF9020318F0
:10025C0036297408F80775080318750FF907031089
:0A026C00F00DF10DFC0B2429080031
:1002760083120313CB1B41298612422986164B1B78
:100286004629061247290616CB1A4B2986114C29F0
:1002960086154B1A5029061151290615AE185529EF
:1002A600061456290610861403208610CB195D29DC
:1002B60086125E2986164B196229061263290616CE
:1002C600CB1867298611682986154B186C290611E3
:1002D6006D290615AE1871290614722906108614A2
:1002E60003208610AE1C79291F207A292C200800AD
:0E02F6008312031330088A002F0882000800CC
:100304000D2183124608F000F00D70109030700437
:10031400CB009F204708CB009F204908CB009F209B
:0A0324004808CB009F20332008009A
:10032E0083120313C901053049020318A529490890
:10033E004807840020308000C90A9A2949084807D6
:10034E0084008001C90349084807CA000A30F40036
:10035E00F5014608F0004708F1001E217808F0006C
:10036E007908F1003030F0074A08840070088000E8
:10037E000A30F400F5014608F0004708F1001E218E
:10038E007008C6007108C70000307106031DD12920
:10039E0000307006031DD429D629C903AA290800E6
:1003AE000D2183124608F000F00D7010903070048D
:1003BE00CB009F204708CB009F200D2183124608BB
:1003CE00F000F00D701090307004CB004B149F2095
:1003DE000130CB000030CC004E207008C900CB019C
:1003EE00CC014E207008C800332083124808F0005C
:0603FE004908F1000800AF
:1004040083120313AE104608CB003B21AE14080040
:1004140083120313C201C3013D08C4003E08C50092
:1004240080303E06F00080307002031D1B2A00302D
:100434003D020318292A0130C2000030C3003D08E0
:10044400003CC4003E08031C013EC501C50244082B
:10045400C6004508C7003F08C80097210630C00001
:100464000030C1004108003C031D3A2A4008003C0A
:100474000318552A40083F07F20001304002F000FB
:100484000030031C013E4102F10070083F07840064
:100494000008F00072088400700880000130C00277
:1004A400031CC103342A3F08840020308000420822
:1004B40043040319732AC001C10140083F078400A3
:1004C4000008203A031D6A2AC00A0319C10A5F2AD8
:1004D4000130C002031CC10340083F0784002D30D3
:0404E400800008008C
:1004E80083120313C101063041020318822A41080E
:1004F8003F07840030308000C10A772A41083F074F
:100508008400800100303E06031D8C2A00303D0621
:10051800031D8F2AE02AC00180303E06F00080309B
:100528007002031D992A00303D020318A62A0130E3
:10053800C0003D08003CC2003E08031C013EC30148
:10054800C302AA2A3D08C2003E08C3000530C10004
:1005580000304306031DB22A003042060319D92A87
:1005680041083F07C4000A30F4000030F500420893
:10057800F0004308F1001E217808F0007908F10026
:100588003030F0074408840070088000C1030A3046
:10059800F4000030F5004208F0004308F1001E2185
:1005A8007008C2007108C300AC2A40080319E02A89
:0A05B8003F0884002D308000080089
:1005C2000D2183123D08F000F00D70109030700480
:0E05D200CB009F205130CB009F20332008002B
:1005E000831203137008BE003D08C600AA30C7007E
:1005F000D7217008BF007108C0000230F3003E0828
:10060000F2003F30F100710884000008F000720829
:10061000840070088000F20AF10AF303031D032B23
:020620000800D0
:10062200232B803083120313BD00362BC030BD0054
:10063200362B9430BD00362BD430BD00362B8030A3
:10064200BD00362B831203133D08013A0319122B06
:100652003D08023A0319172B3D08033A03191A2BD6
:100662003D08043A03191D2B202B3E03F0003D08E0
:10067200F0077008BD007008CB003B21AE10C0012E
:1006820040083F078400000803194F2B40083F072A
:1006920084000008C6000222C00A412BAE140800E2
:1006A20083120313FB01FA01F9018030F800F10C07
:1006B200F00C031C652B7408F90775080318750FF5
:1006C200FA070318FB0A0310F01F6D2B7408FA07D0
:1006D20075080318750FFB07FB0CFA0CF90CF80CE4
:1006E200031C582B7B08F3007A08F2007908F1000A
:0606F2007808F00008008A
:1006F8007B218A110A128000840AAF0A0319B00A02
:08070800F003031D7C2B080027
:100710000D2183123D08F000F00D70109030700430
:10072000CB009F20AC30CB009F203E088400000807
:10073000CB009F2033204130FC00EE30FD00FD0B4C
:0A0740009F2BFC0B9F2B000008000C
:10074A00831203133D08C600A130C7004008C90040
:10075A00C80182214130FC00EE30FD00FD0BB32BB5
:10076A00FC0BB32B000083123D08C600A230C70061
:10077A003E08C900C80182214130FC00EE30FD006C
:0C078A00FD0BC52BFC0BC52B000008006C
:1007960083120313BE013E083D07840000080319B7
:1007A600DC2B3E083D0784000008C6000222BE0A74
:0407B600CE2B08003E
:1007BA008316031386100610061186110612861276
:1007CA0083128610061086120612861106111F2041
:1007DA001F201F20861506158614032086101F2049
:1007EA008614032086101F208614032086101F20DB
:1007FA0006118614032086101F20861403208610F3
:10080A00861186168614032086101F208612061566
:10081A0086140320861006118614032086101F20D2
:10082A0086140320861006158614032086101F20BE
:10083A0006118614032086108616061686150615D6
:0C084A008614032086101F20AE14080046
:10085600543083120313A0006530A1006D30A2004E
:100866007030A3003A30A4002030A500A601443021
:10087600A7005330A8003130A9003630AA00333023
:10088600AB003130AC00AD01880100308316880022
:10089600DD230130CB003B210C30CB003B21311452
:1008A600B110F3303105F0007008B100BD013130F0
:1008B600BE0088238312BD011430BE000030BF0085
:1008C6001930C0000030C100A5238312BD01E1220A
:1008D6001430FB000730FC001130FD00FD0B712CBD
:1008E600FC0B712CFB0B712C0000000001308312F5
:1008F600CB003B210130BD000530BE002730BF00D4
:1009060011230230BD000130BE002030BF0011238C
:10091600BD013B30F000F0220230F3003230F2002D
:100926003B30F100710884000008F0007208840072
:1009360070088000F20AF10AF303031D952C831256
:10094600FF303305BD00BE010030BE050030BE00DD
:100956003430BF000A223730BD00CB232E30C6000C
:100966000222F0303205F400F40CF413F40CF41304
:10097600F40CF413F40CF4137130F0000230F100AF
:100986000030F50051237008BD007108BE003430F8
:10099600BF0074223630BD00CB23DF30C6000222F2
:1009A6004330C60002220817081FE92C803088064B
:1009B6001A30FB005E30FC006E30FD00FD0BE12CB2
:1009C600FC0BE12CFB0BE12C0000EA2C8813682CB5
:0209D600EB2C08
:02400E004A2F37
:00000001FF
