:02000000442892
:1000060083160313981809280000032883122D0865
:040016009900080045
:0E001A00831203132B088A002A0882000800B4
:100028008316031398169030831298008316871747
:10003800071383128C1E23281A08F0001D280800B5
:100048000D208A110A128000840AAA0A0319AB0A31
:08005800F003031D2428080039
:100060000A3083120313AC000A30AD0003200D30B8
:0A007000AC000D30AD0003200800C5
:0E007A000030831203138C1A0130F0000800CE
:1000880083120313A001A1014230A2006F30A30024
:100098006E30A4006A30A5006F30A6007530A70046
:1000A8007230A800A901880183168801813099005F
:1000B800181514203D20700803197E28A001A101FD
:1000C80080302106F00080307002031D6D28073053
:1000D800200203187D282008223E84000008F00032
:1000E8007008AC007008AD000320A00A0319A10A2B
:1000F800642830201A30FB005E30FC006E30FD00B2
:10010800FD0B8428FC0B8428FB0B8428000088093D
:040118005E288D28A8
:02400E004A2F37
:00000001FF
