:02000000272CAB
:10000600243083120313FC00B530FD00FD0B0928D4
:0A001600FC0B0928000000000800A0
:0E002000533083120313FD00FD0B142808005B
:10002E00073084000008000883120313F000F0115B
:06003E00700880000800BC
:0C004400000000000000000000000800A8
:10005000073084000008000883120313F0007012B8
:060060007008800008009A
:10006600831603130716222022208715222022201A
:100076002820831607122220222017208316871194
:02008600080070
:1000880083120313F801F9011030FC00710DF80D0B
:10009800F90D7408F8027508031C750FF9020318A6
:1000A8005C287408F80775080318750FF90703101A
:0A00B800F00DF10DFC0B4A280800C2
:1000C200013083120313EA000030EB008030E800B5
:1000D200E9016808690403199728222022202220B6
:1000E20022201720831687112220222083126808DB
:1000F2006705F00000306905F1007008710403190A
:10010200852883160716882828208316071222209E
:100112002220871583122E10871993282E1C9228CD
:1001220093288D28E90CE80CE9136A28EA01EB010F
:100132002220222017208316871122202220071630
:100142002220222022202220871583122E10871996
:10015200AE282E1CAD28AE28A828EA01EB012220E9
:100162002220071EB5286A142220222022202220C3
:10017200222022202220222022202220222022206D
:1001820022202220222022201720831687112820B5
:0C0192008316071283126A08F0000800B0
:10019E0083120313E901EA018030EB000030EC001A
:1001AE006B086C040319FA282220222083160716E6
:1001BE0022202220871583122E108719EA282E1C42
:1001CE00E928EA28E428071EF0286B08E9046C08E1
:1001DE00EA04222022201720831687118312EC0CAA
:1001EE00EB0CEC13D728831607162220222083123D
:1001FE006708680403190629282083160712831638
:10020E0022202220871583122E10871912292E1CC8
:10021E00112912290C29222022201720831687113A
:10022E002220222028208316071283126908F0004C
:02023E000800B6
:1002400083120313E71B2629861227298616671BAC
:100250002B2906122C290616E71A30298611312976
:100260008615671A3529061136290615AE183A295A
:1002700006143B290610861422208610E71942290D
:100280008612432986166719472906124829061639
:10029000E7184C2986114D29861567185129061132
:1002A00052290615AE185629061457290610861429
:1002B00022208610AE1C5E2903205F291020080032
:1002C00028208316071222202220871583122E1041
:1002D00087196E292E1C6D296E296829222022205B
:1002E00022202220222022202220222083160716CC
:0602F0002220222008007C
:0E02F6008312031330088A002F0882000800CC
:1003040083120313AE106208E7002021AE14080024
:10031400332083126208F000F00D701090307004E6
:10032400E70061206308E70061206508E7006120B9
:0A0334006408E70061206021080062
:10033E00831603139818A52900009F2983126208BB
:04034E00990008000A
:10035200831603139816903083129800831687171A
:10036200071383128C1EB8291A08F000B22908005C
:1003720083120313E501053065020318C7296508D6
:100382006407840020308000E50ABC296508640700
:1003920084008001E50365086407E6000A30F40082
:1003A200F5016208F0006308F10044207808F000CB
:1003B2007908F1003030F007660884007008800088
:1003C2000A30F400F5016208F0006308F1004420ED
:1003D2007008E2007108E30000307106031DF32982
:1003E20000307006031DF629F829E503CC29080020
:1003F200332083126208F000F00D70109030700408
:10040200E70061206308E70061203320831262085D
:10041200F000F00D701090307004E7006714612056
:100422000130E7000030E800CF207008E500E70166
:10043200E801CF207008E400602183126408F00014
:060442006508F10008004E
:10044800332083125908F000F00D701090307004BA
:0E045800E70061205130E700612060210800BC
:1004660083120313DE01DF015908E0005A08E10098
:1004760080305A06F00080307002031D442A003096
:1004860059020318522A0130DE000030DF005908F5
:10049600003CE0005A08031C013EE101E10260084D
:1004A600E2006108E3005B08E400B9210630DC00E5
:1004B6000030DD005D08003C031D632A5C08003C3B
:1004C60003187E2A5C085B07F20001305C02F0002C
:1004D6000030031C013E5D02F10070085B078400DA
:1004E6000008F00072088400700880000130DC0209
:1004F600031CDD035D2A5B088400203080005E0853
:100506005F0403199C2ADC01DD015C085B0784009B
:100516000008203A031D932ADC0A0319DD0A882AFB
:100526000130DC02031CDD035C085B0784002D3010
:040536008000080039
:10053A00AF2A803083120313D900C22AC030D900EF
:10054A00C22A9430D900C22AD430D900C22A8030B3
:10055A00D900C22A831203135908013A03199E2AA1
:10056A005908023A0319A32A5908033A0319A62A71
:10057A005908043A0319A92AAC2A5A03F00059085F
:10058A00F0077008D9007008E7002021AE10DC01DE
:10059A005C085B07840000080319DB2A5C085B0718
:1005AA0084000008E2008221DC0ACD2AAE14080089
:1005BA0081308316031399001815A921DC01DD0186
:1005CA0080305D06F00080305A067002031DEF2A63
:1005DA0059085C020318FB2A5C085B0784000008C0
:0E05EA00E2009F21DC0A0319DD0AE52A080061
:1005F800831203137008DA005908E200AA30E300F6
:10060800F9217008DB007108DC000230F3005A0899
:10061800F2005B30F100710884000008F0007208F5
:10062800840070088000F20AF10AF303031D0F2BFF
:020638000800B8
:10063A008312031308104130FC00EE30FD00FD0B5D
:10064A00242BFC0B242B000008140D30FB00AF30C8
:10065A00FC00B630FD00FD0B302BFC0B302BFB0BE6
:10066A00302B000088100330FB008A30FC00553024
:10067A00FD00FD0B3E2BFC0B3E2BFB0B3E2B000023
:10068A00000008151A30FB005E30FC006E30FD00D9
:10069A00FD0B4D2BFC0B4D2BFB0B4D2B00000811BA
:0206AA00080046
:1006AC0083120313DA015A0859078400000803194E
:1006BC00672B5A08590784000008E2008221DA0AE5
:0406CC00592B08009E
:1006D000831203135908E200A130E3005C08E5002F
:1006E000E4018A214130FC00EE30FD00FD0B762B49
:1006F000FC0B762B000083125908E200A230E300C5
:100700005A08E500E4018A214130FC00EE30FD008A
:0C071000FD0B882BFC0B882B0000080060
:10071C00332083125908F000F00D701090307004E3
:10072C00E7006120AC30E70061205A088400000823
:10073C00E700612060214130FC00EE30FD00FD0B34
:0A074C00A52BFC0BA52B00000800F4
:1007560083160313861006100611861106128612DA
:1007660083128610061086120612861106110320C1
:1007760003200320861506158614222086100320E2
:100786008614222086100320861422208610032039
:100796000611861422208610032086142220861035
:1007A60086118616861422208610032086120615C8
:1007B6008614222086100611861422208610032015
:1007C6008614222086100615861422208610032001
:1007D600061186142220861086160616861506151C
:0C07E6008614222086100320AE140800A8
:1007F2008312031388140330FB008A30FC00553047
:10080200FD00FD0B022CFC0B022CFB0B022C00004A
:10081200000088153330FB00BB30FC00DF30FD00E8
:10082200FD0B112CFC0B112CFB0B112C00000000FA
:040832008811080021
:100836007B218A110A128000840AAF0A0319B00AC2
:08084600F003031D1B2C080048
:10084E00543083120313A0006530A1006D30A20056
:10085E007030A3003A30A4002030A500A601443029
:10086E00A7005330A8003130A9003630AA0033302B
:10087E00AB003130AC00AD015430C3006530C40064
:10088E006D30C5007030C6006530C7007230C800CC
:10089E006130C9007430CA007530CB007230CC00A4
:1008AE006530CD002030CE00CF010D30D0000A30A3
:1008BE00D100D2012E30D300D4014330D500D60161
:1008CE008801203083168800081088100817081138
:1008DE008811AB230130E70020210C30E7002021E6
:1008EE003114B1140C303104F0007008B100D9018C
:1008FE003130DA008E238312D9011430DA00003041
:10090E00DB001930DC000030DD0068238312D901D2
:10091E0024221430FB000730FC001130FD00FD0BCB
:10092E00962CFC0B962CFB0B962C00000000013035
:10093E008312E70020210130D9000530DA0027307C
:10094E00DB009D220230D9000130DA002030DB00BE
:10095E009D221D23D9015730F000FC220230F300F6
:10096E003230F2005730F100710884000008F000B8
:10097E007208840070088000F20AF10AF303031D66
:10098E00BB2C8312B21FE02CFF303305F00033086E
:10099E00F006FF30F0053308F0067008B300503053
:1009AE003206F000F030F0053208F0067008B200A2
:1009BE00E52C0F303205F0007008B200FF30330521
:1009CE00D900DA010030DA050030DA003430DB000D
:1009DE0033220B30D9000030DA004330DB00DD2249
:1009EE003430D90056230330D9000030DA003730C6
:1009FE00DB00DD220130D9000030DA005330DB009D
:100A0E00DD222E30E2008221F0303205F100F10CB1
:100A1E00F113F10CF113F10CF113F10CF113303061
:100A2E007107F0007008B400B5013430D9005623B8
:100A3E000130D9000030DA003430DB00DD22DF3047
:100A4E00E20082214330E20082210130D9000030E1
:100A5E00DA005530DB00DD220230D900DA015030E9
:100A6E00DB00DD22F9230817081F4D2D8030880684
:100A7E001A30FB005E30FC006E30FD00FD0B452D84
:100A8E00FC0B452DFB0B452D00004E2D88138D2C98
:020A9E004F2DDA
:02400E004A2F37
:00000001FF
