:02000000062CCC
:06000600000000000800EC
:10000C000F3083120313FC004730FD00FD0B0C284E
:0A001C00FC0B0C2800000000080097
:0E002600213083120313FD00FD0B1728080084
:1000340083120313F801F9011030FC00710DF80D5F
:10004400F90D7408F8027508031C750FF9020318FA
:1000540032287408F80775080318750FF907031098
:0A006400F00DF10DFC0B2028080040
:10006E0083120313E31B3D2886123E288616631B5C
:10007E004228061243280616E31A472886114828F6
:10008E008615631A4C2806114D280615421851285C
:10009E00061452280610861403208610E3195928D8
:1000AE0086125A28861663195E2806125F280616CF
:1000BE00E3186328861164288615631868280611CC
:1000CE006928061542186D2806146E280610861427
:1000DE0003208610421C752806207628132008005F
:1000EE0083120313E10105306102031885286108AC
:1000FE006007840020308000E10A7A2861086007DA
:10010E0084008001E10361086007E2000A30F40018
:10011E00F5015E08F0005F08F1001A207808F00083
:10012E007908F1003030F007620884007008800012
:10013E000A30F400F5015E08F0005F08F1001A20A5
:10014E007008DE007108DF0000307106031DB12853
:10015E0000307006031DB428B628E1038A28080073
:10016E00831603131419C5281F301105F1007108E9
:10017E00003A031DC5280130F000C628F001080022
:0E018E008312031335088A003408820008002B
:0E019C008312031335088A003408820008001D
:1001AA008312031342105E08E3003720421408004A
:1001BA0083120313FB01FA01F9018030F800F10CF4
:1001CA00F00C031CF1287408F90775080318750F59
:1001DA00FA070318FB0A0310F01FF9287408FA0734
:1001EA0075080318750FFB07FB0CFA0CF90CF80CD1
:1001FA00031CE4287B08F3007A08F2007908F1006E
:06020A007808F000080076
:100210001A29803083120313D5002D29C030D50050
:100220002D299430D5002D29D430D5002D298030AA
:10023000D5002D29831203135508013A0319092902
:100240005508023A03190E295508033A03191129D2
:100250005508043A0319142917295603F0005508C4
:10026000F0077008D5007008E30037204210D8016D
:1002700058085707840000080319462958085707EB
:1002800084000008DE00D520D80A3829421408006E
:10029000831203138C11200893002908D5002A0823
:1002A000D6002B08D7002C08D8008316141D7F29F0
:1002B000831229082A042B042C0403197E295508CB
:1002C000560457045804031D76294B088400043053
:1002D0008000840A4908B4004A08B500C7208A1182
:1002E0000A12013083120313F000B8290130D5023D
:1002F000031CD602031CD702031CD8025529831203
:100300002908D5002A08D6002B08D7002C08D800C9
:100310008C19B02929082A042B042C040319AF29AD
:100320005508560457045804031DA7294B08840098
:1003300004308000840A4908B4004A08B500C72088
:100340008A110A12013083120313F000B829013018
:10035000D502031CD602031CD702031CD80288292D
:100360008316111BB529F001B82911150230F000D0
:02037000080083
:080372008316031311150800A6
:10037A0083160313861006100611861106128612BA
:10038A00831286100610861206128611061106209E
:10039A0006200620861506158614032086100620D8
:1003AA008614032086100620861403208610062051
:1003BA000611861403208610062086140320861050
:1003CA0086118616861403208610062086120615C4
:1003DA008614032086100611861403208610062030
:1003EA00861403208610061586140320861006201C
:1003FA00061186140320861086160616861506151B
:0C040A008614032086100620421408000F
:10041600831203132908D6002A08D7002B08D80010
:100426002C08D9008C118316911583128C193F2A3A
:1004360029082A042B042C0403193E2A56085704BB
:1004460058045904031D342A4B08840003308000E5
:10045600840A4908B4004A08B500C7208A110A125E
:100466003F2A013083120313D602031CD702031C52
:10047600D802031CD902182A831203131308D500C5
:100486002108003A031D4A2A831691164C2A831620
:10049600911283128C118316111683122908D60025
:1004A6002A08D7002B08D8002C08D9008C197F2AD7
:1004B60029082A042B042C0403197E2A56085704FB
:1004C60058045904031D742A4B0884000330800025
:1004D600840A4908B4004A08B500C7208A110A12DE
:1004E6007F2A013083120313D602031CD702031C92
:1004F600D802031CD902592A831203135508F000A7
:020506000800EB
:10050800831203132908D7002A08D8002B08D9001A
:100518002C08DA00D501D6015608123C031D962A8C
:1005280055088E3C031CA22AB720700803199D2A7F
:10053800A22A8312D50A0319D60A902A83121230E6
:100548005602031DA92A8F305502031CAE2A7B30A0
:10055800F000DB2A831611148316111CDA2A831281
:1005680029082A042B042C040319D92A57085804EB
:1005780059045A04031DD12A4B0884000530800011
:10058800840A4908B4004A08B500C7208A110A122B
:10059800013083120313F000DB2A0130D702031C59
:1005A800D802031CD902031CDA02B02AF0010800A1
:1005B80083120313D901063059020318EA2A59088D
:1005C8005707840030308000D90ADF2A59085707B6
:1005D8008400800100305606031DF42A00305506B9
:1005E800031DF72A482BD80180305606F0008030CA
:1005F8007002031D012B0030550203180E2B013029
:10060800D8005508003CDA005608031C013EDB01FF
:10061800DB02122B5508DA005608DB000530D9003A
:1006280000305B06031D1A2B00305A060319412BB4
:1006380059085707DC000A30F4000030F5005A0862
:10064800F0005B08F1001A207808F0007908F10042
:100658003030F0075C08840070088000D9030A3045
:10066800F4000030F5005A08F0005B08F1001A2089
:100678007008DA007108DB00142B58080319482B9E
:0A068800570884002D3080000800A0
:1006920083120313DA01DB015508DC005608DD0082
:1006A20080305606F00080307002031D5A2B003055
:1006B20055020318682B0130DA000030DB005508C0
:1006C200003CDC005608031C013EDD01DD025C0833
:1006D200DE005D08DF005708E00077200630D80012
:1006E2000030D9005908003C031D792B5808003C02
:1006F2000318942B58085707F20001305802F000F3
:100702000030031C013E5902F100700857078400B3
:100712000008F00072088400700880000130D802DE
:10072200031CD903732B57088400203080005A0819
:100732005B040319B22BD801D9015808570784006A
:100742000008203A031DA92BD80A0319D90A9E2BA7
:100752000130D802031CD9035808570784002D30F2
:04076200800008000B
:10076600CE208A110A128000840AB40A0319B50A37
:08077600F003031DB32B080082
:10077E0083120313D6015608550784000008031987
:10078E00D02B5608550784000008DE00D520D60A67
:04079E00C22B080062
:1007A200B73083120313BC000030BD000030BE001E
:1007B20000308430B9000230BA000030BB00003093
:1007C200FF30B600FF30B7000030B80000300B3009
:1007D200BF000230C0002130C10000304830C600E6
:1007E2000130C7002030C8000030B930C3000130EA
:1007F200C4000030C500003083161413941307168A
:0A08020087153830831294000800B7
:10080C00DE24BD210130E30037200C30E30037201B
:10081C00143083169300D123842290308312031357
:10082C00A0004821AC3083120313A00048210E30E5
:10083C0083120313A0004821B9211A30FC00F830B0
:10084C00FD00FD0B272CFC0B272C00008422903084
:10085C0083120313A0004821513083120313A0000C
:10086C004821B9211A30FC00F830FD00FD0B3C2C5E
:10087C00FC0B3C2C0000831288010030831688008E
:10088C008422903083120313A0004821AA308312D3
:10089C000313A0004821B9211A30FC00F830FD00E8
:1008AC00FD0B562CFC0B562C00008422913083122D
:1008BC000313A0004821013083120313A1000B2263
:1008CC007008CD00A1010B227008CC00B9211A30A0
:1008DC00FC00F830FD00FD0B712CFC0B712C0000A2
:1008EC0001308312E30037200130D5000530D600EB
:1008FC002230D70008210230D5000130D6002D302F
:10090C00D70008214D08D5000030D51BFF30D6008C
:10091C004E30D70049235130D500BF232E30DE0096
:10092C00D5204C08F000F1017130F4000230F500D4
:10093C00DD207008D5007108D6004E30D700DC22BF
:10094C005030D500BF23DF30DE00D5204330DE0031
:10095C00D5200817081FC32C803088060B30FB00ED
:10096C002630FC005D30FD00FD0BBA2CFC0BBA2CC4
:10097C00FB0BBA2C00000000C42C8813462CC52C91
:1009BC0022308400123083120313F000CB30B400C9
:0809CC000430B500B32308005C
:0E099600443453343134363433343134003485
:0809A40000340034003400347B
:0E09AC00543465346D3470343A3420340034E1
:02400E007A3303
:00000001FF
