:020000000629CF
:0E000600533083120313FD00FD0B0728080082
:10001400243083120313FC00B530FD00FD0B1028BF
:0A002400FC0B10280000000008008B
:0C002E00000000000000000000000800BE
:10003A0083120313BA1B23288612242886163A1B16
:10004A002828061229280616BA1A2D2886112E28BB
:10005A0086153A1A32280611332806153218372817
:10006A00061438280610861417208610BA193F2855
:10007A008612402886163A1944280612452806167A
:10008A00BA18492886114A2886153A184E280611A0
:10009A004F280615321853280614542806108614B9
:1000AA0017208610321C5B280A205C2803200800CF
:0E00BA008312031334088A0033088200080002
:1000C8008312031332103908BA001D2032140800B5
:1000D800831603138610061006118611061286125F
:1000E80083128610061086120612861106110A203F
:1000F8000A200A20861506158614172086100A205D
:100108008614172086100A208614172086100A20C5
:1001180006118614172086100A20861417208610C8
:10012800861186168614172086100A208612061550
:1001380086141720861006118614172086100A20A8
:1001480086141720861006158614172086100A2094
:1001580006118614172086108616061686150615AB
:0C0168008614172086100A2032140800AC
:10017400CC28803083120313B500DF28C030B500CB
:10018400DF289430B500DF28D430B500DF28803074
:10019400B500DF28831203133508013A0319BB287D
:1001A4003508023A0319C0283508033A0319C3284D
:1001B4003508043A0319C628C9283603F00035085F
:1001C400F0077008B5007008BA001D203210B8019D
:1001D40038083707840000080319F8283808370757
:1001E40084000008B9006420B80AEA283214080020
:1001F4005D208A110A128000840AB30A0319B40A22
:08020400F003031DFA280800B5
:10020C00223083120313A0002D30A1005030A20025
:10021C004130A3005530A4005330A5004530A60052
:10022C002030A7004330A8004130A9004630AA0076
:10023C004530AB00AC015430AD004530AE0053300E
:10024C00AF005430B000B1016C200130BA001D2059
:10025C000C30BA001D208801403083168800013014
:10026C008312B5000130B6002108B700BA20023065
:10027C00B5000130B6002008B700BA200817081FD7
:10028C005729803088061A30FB005E30FC006E3037
:10029C00FD00FD0B4F29FC0B4F29FB0B4F290000D8
:0802AC0058298813352959294E
:02400E004A273F
:00000001FF
